:100000000C9462000C948A000C948A000C948A0070
:100010000C948A000C948A000C948A000C948A0038
:100020000C948A000C948A000C948A000C948A0028
:100030000C948A000C948A000C948A000C948A0018
:100040000C9451070C948A000C941F070C94F90629
:100050000C948A000C948A000C948A000C948A00F8
:100060000C949B070C948A000000000024002700D9
:100070002A0000000000250028002B0000000000DE
:1000800023002600290004040404040404040202DA
:100090000202020203030303030301020408102007
:1000A0004080010204081020010204081020000012
:1000B0000008000201000003040700000000000027
:1000C0000000B60811241FBECFEFD8E0DEBFCDBFC1
:1000D00011E0A0E0B1E0E6E1F2E202C005900D928D
:1000E000A63BB107D9F723E0A6EBB1E001C01D9212
:1000F000AA39B207E1F710E0C2E6D0E004C02197C8
:10010000FE010E94ED0EC136D107C9F70E94B70962
:100110000C9409110C94000096E0899FD0011124E1
:10012000AF5FBC4F90967C936E935F9791E09196F2
:100130009C939197E0916E03F0916F0390916D0302
:10014000992339F0309751F0811108C080911D0337
:100150000994309719F05C968C91FACF0895CF925C
:10016000DF92EF92FF920F931F9396E0899FF00129
:100170001124EF5FFC4F11A2278D30A121303105F2
:1001800051F178F02230310509F451C023303105A6
:1001900009F452C01F910F91FF90EF90DF90CF9024
:1001A00008956623B9F361E070E00E948C002FB7D8
:1001B000F8948091540290915502A0915602B0910A
:1001C00057022FBF8093590390935A03A0935B0368
:1001D000B0935C03DFCF9FB7F894C0905402D090E7
:1001E0005502E0905602F09057029FBF00915903CC
:1001F00010915A0320915B0330915C03C01AD10A1D
:10020000E20AF30A00916B0310916C0330E020E0E6
:100210000C151D052E053F0550F462E070E01F919E
:100220000F91FF90EF90DF90CF900C948C006111B4
:10023000B1CF63E070E0F3CF70E060E0F0CFAF9259
:10024000BF92CF92DF92EF92FF920F931F93CF93C3
:10025000DF936C017B018B01040F151FEB015E0125
:10026000AE18BF08C017D10759F06991D601ED91BA
:10027000FC910190F081E02DC6010995892B79F759
:10028000C501DF91CF911F910F91FF90EF90DF900B
:10029000CF90BF90AF900895FC01538D448D252FD2
:1002A00030E0842F90E0821B930B541710F0CF9610
:1002B000089501970895FC01918D828D981761F042
:1002C000A28DAE0FBF2FB11D5D968C91928D9F5F59
:1002D0009F73928F90E008958FEF9FEF0895FC0138
:1002E000918D828D981731F0828DE80FF11D858DEB
:1002F00090E008958FEF9FEF0895FC01918D228D7E
:10030000892F90E0805C9F4F821B91098F73992702
:10031000089588E592E00E947D0121E0892B09F48F
:1003200020E0822F089580E090E0892B29F00E9440
:10033000890181110C9400000895FC01A48DA80F7F
:10034000B92FB11DA35ABF4F2C91848D90E0019617
:100350008F739927848FA689B7892C93A089B18937
:100360008C91837080648C93938D848D981306C0D8
:100370000288F389E02D80818F7D80830895EF923C
:10038000FF920F931F93CF93DF93EC0181E0888F4F
:100390009B8D8C8D98131AC0E889F989808185FF1F
:1003A00015C09FB7F894EE89FF896083E889F989C1
:1003B00080818370806480839FBF81E090E0DF91C3
:1003C000CF911F910F91FF90EF900895F62E0B8D16
:1003D00010E00F5F1F4F0F731127E02E8C8D8E11D1
:1003E0000CC00FB607FCFACFE889F989808185FF38
:1003F000F5CFCE010E949D01F1CFEB8DEC0FFD2FCB
:10040000F11DE35AFF4FF0829FB7F8940B8FEA89F2
:10041000FB8980818062CFCFCF93DF93EC01888D01
:100420008823B9F0AA89BB89E889F9898C9185FD6F
:1004300003C0808186FD0DC00FB607FCF7CF8C91FD
:1004400085FFF2CF808185FFEDCFCE010E949D0117
:10045000E9CFDF91CF910895833081F028F4813086
:1004600099F08230A9F008958730A9F08830C9F05A
:100470008430B1F4809180008F7D03C08091800032
:100480008F7780938000089584B58F7784BD089519
:1004900084B58F7DFBCF8091B0008F778093B000C3
:1004A00008958091B0008F7DF9CFCF93DF93282FEF
:1004B00030E0F901E255FF4F8491F901E656FF4F14
:1004C000D491F901EA57FF4FC491CC23A1F08111D7
:1004D0000E942C02EC2FF0E0EE0FFF1FE458FF4FBC
:1004E000A591B491EC91ED2381E090E009F480E0D6
:1004F000DF91CF91089580E090E0FACF862F0C94A1
:1005000055021F93CF93DF93282F30E0F901E25576
:10051000FF4F8491F901E656FF4FD491F901EA5754
:10052000FF4FC491CC23A9F0162F81110E942C02F9
:10053000EC2FF0E0EE0FFF1FEE58FF4FA591B491A6
:100540008FB7F894EC91111108C0D095DE23DC939D
:100550008FBFDF91CF911F910895DE2BF8CFCF93FE
:10056000DF93EC018091840390918503029749F415
:10057000C130D10509F43BC06CF560E0209709F467
:1005800037C08091840390918503049749F4C1306A
:10059000D10509F45CC00CF037C0209709F442C0C3
:1005A0008091840390918503059709F0E5C0CA30D6
:1005B000D10508F0E1C0FE01E052FD4F0C94ED0EB4
:1005C0003F034B035C0372038D038F039603A20367
:1005D000B303BA03C230D105A9F060E0C330D1053E
:1005E00081F6809188030E94810260E006C061E08C
:1005F000809188030E94810261E080918A030E94B9
:100600008102BFCF61E0EDCFC230D10539F1C330F7
:10061000D10509F0C5CF61E0809188030E94810275
:1006200060E022C061E0809188030E94810260E066
:1006300080918A030E94810261E080918C030E9474
:10064000810260E080918E030E948102A9CF60E068
:10065000809188030E94810261E0EACF60E080918E
:1006600088030E94810261E080918A030E948102D6
:1006700060E080918C030E94810261E0E3CF60E042
:10068000809188030E94810261E080918A030E9428
:10069000810261E00BC060E0809188030E948102CA
:1006A00061E080918A030E94810260E080918C0366
:1006B0000E94810260E010C060E0809188030E9487
:1006C000810261E080918A030E94810260E0809152
:1006D0008C030E94810261E080918E030E9481025E
:1006E00061E015C060E0809188030E94810261E0B2
:1006F00080918A030E94810260E080918C030E94B5
:10070000810261E080918E030E94810260E080910D
:100710009003DF91CF910C94810261E0E4CF61E01E
:10072000809188030E94810260E0E2CF61E08091C5
:1007300088030E94810260E080918A030E94810206
:1007400061E0DBCF61E0809188030E94810260E07C
:1007500080918A030E94810261E080918C030E9453
:10076000810260E0CFCF61E0809188030E94810226
:1007700060E08BCF60E0F8CFDF91CF910895862FB6
:10078000642F0C948102CF93DF9390E0FC01E65636
:10079000FF4F24918A579F4FFC0184918823C9F011
:1007A00090E0880F991FFC01E859FF4FA591B49183
:1007B000FC01EE58FF4FC591D49161110DC09FB758
:1007C000F8948C91209582238C9388812823288308
:1007D0009FBFDF91CF910895623051F49FB7F89495
:1007E0003C91822F809583238C93E8812E2BEFCF31
:1007F0008FB7F894EC912E2B2C938FBFEACF862FD6
:10080000642F0C94C3033FB7F89480914C029091ED
:100810004D02A0914E02B0914F0226B5A89B05C093
:100820002F3F19F00196A11DB11D3FBFBA2FA92F6F
:10083000982F8827BC01CD01620F711D811D911D6C
:1008400042E0660F771F881F991F4A95D1F70895D8
:100850008F929F92AF92BF92CF92DF92EF92FF92D0
:100860006B017C010E9403044B015C01C114D104A3
:10087000E104F104B9F00E940304681979098A09B6
:100880009B09683E73408105910580F321E0C21AFF
:10089000D108E108F10888EE880E83E0981EA11CBB
:1008A000B11CE4CFFF90EF90DF90CF90BF90AF905E
:1008B0009F908F90089508951F93CF93DF93C1E089
:1008C000C093B701882399F1D091B8001091BA0074
:1008D0008091BC008A7B8093BC0060E082E10E9432
:1008E000810260E083E10E94810210922102C093A4
:1008F00020021092FB0161E082E10E94810261E02E
:1009000083E10E9481028091B9008E7F8093B900BB
:100910008091B9008D7F8093B90088E48093B800FE
:1009200085E48093BC001093BA00D093B800DF91A7
:10093000CF911F9108952091D801260F3327331F9F
:1009400021323105ECF420912102FC0190E080E09D
:10095000243069F082E00895A091D8012191AC0182
:1009600048545E4FA40FB52FB11D2C9301968617E6
:1009700098F38091D801680F6093D80180E00895C2
:1009800081E0089508958FEF9FEF08958FEF9FEF17
:1009900008958091B60190E091958195910908950F
:1009A000CF92DF92EF92FF920F931F93CF93DF933B
:1009B0007C01CB018A0120912702222389F0EB01DF
:1009C0006B01C40ED51ECC15DD0569F06991D70108
:1009D000ED91FC910190F081E02DC7010995F3CFD5
:1009E000642F0E949B04C801DF91CF911F910F914A
:1009F000FF90EF90DF90CF900895CF93DF931F92F9
:100A0000CDB7DEB76983209127022223F9F0209128
:100A10004A02203258F021E030E0FC013383228387
:100A200090E080E00F90DF91CF91089580912802AF
:100A3000E82FF0E0E75DFD4F998190838F5F809311
:100A4000280280934A0281E090E0ECCF61E0CE0181
:100A500001960E949B04F7CFCF92DF92EF92FF9214
:100A60000F931F93CF93DF93FC01C48121E0209368
:100A70002702C09349021092280210924A028385ED
:100A8000682B85EF92E00E94FD04D0914A02D1329A
:100A900008F092C00E9403046B017C018091210246
:100AA000811165C082E08093210281E08093200261
:100AB0008FEF80931F0210921E02D0931D02A9E2B5
:100AC000B2E0EDEFF1E080E0D81385C01092FC01B8
:100AD0008091FC01CC0FC82BC093FC018091FB01DD
:100AE000813009F07CC01092FB010E9403046B016D
:100AF0007C018091FC018093BB0080912302909146
:100B00002402A0912502B0912602892B8A2B8B2BDF
:100B100099F00E9403040091230210912402209175
:100B20002502309126026C197D098E099F0906174E
:100B3000170728073907E0F18091BC0083FDD9CF62
:100B400085EC8093BC000E9403046B017C018091C2
:100B50002102823009F445C080911F028F3F61F16C
:100B600080911F02803241F180911F0225C0809147
:100B7000230290912402A0912502B0912602892B94
:100B80008A2B8B2B09F48ACF0E9403040091230245
:100B90001091240220912502309126026C197D09C2
:100BA0008E099F09061717072807390708F076CF1F
:100BB000809122020E945C041092280210924A0244
:100BC00010922702DF91CF911F910F91FF90EF902C
:100BD000DF90CF9008959D9191938F5F75CF85EEB3
:100BE000B0CF8091230290912402A0912502B09170
:100BF0002602892B8A2B8B2B09F4A9CF0E94030490
:100C000000912302109124022091250230912602A6
:100C10006C197D098E099F090617170728073907E0
:100C200008F095CFC5CF90E080E008950F931F9313
:100C3000CF938C01C62F0E942C056C2F6460C801D5
:100C40000E942C056C2F6B7FC8010E942C0583EC41
:100C500090E00197F1F7CF911F910F9108950F93B5
:100C60001F93CF93DF938C01D62FC42F607F642B0B
:100C70000E94160680E1D89FB00111246C2BC80198
:100C8000DF91CF911F910F910C94160640E061E027
:100C900080E793E00E942F068BE39FE10197F1F735
:100CA0000895CF93DF93CDB7DEB728970FB6F894AA
:100CB000DEBF0FBECDBF98E0E0E2F1E0DE011196AD
:100CC00001900D929A95E1F790917803961708F4A8
:100CD0006FEF262F30E0220F331F41E050E04C0F22
:100CE0005D1F240F351FF9016081680F606840E0C7
:100CF00080E793E028960FB6F894DEBF0FBECDBF15
:100D0000DF91CF910C942F0641E00E942F0681E0E5
:100D100090E00895FB0101900020E9F73197AF01C1
:100D2000461B570BDC01ED91FC910280F381E02D15
:100D300009940F931F93CF93DF93EC0188819981DE
:100D4000009759F02A813B812617370730F081E060
:100D5000DF91CF911F910F9108958B016F5F7F4FAE
:100D60000E943310009759F0998388831B830A836C
:100D70002C813D81232B59F7FC011082E8CF80E0C4
:100D8000E7CF85ED8093BC008091230290912402EF
:100D9000A0912502B09126020796A11DB11D23E066
:100DA000B695A795979587952A95D1F72091BC0080
:100DB00024FD03C010922102089540912302509116
:100DC00024026091250270912602452B462B472B69
:100DD00069F30097A105B10541F025E32A95F1F7E4
:100DE00000000197A109B109E1CF809122020C9482
:100DF0005C041F920F920FB60F9211242F933F9312
:100E00004F935F936F937F938F939F93AF93BF9312
:100E1000EF93FF9388E592E00E949D01FF91EF918F
:100E2000BF91AF919F918F917F916F915F914F9102
:100E30003F912F910F900FBE0F901F9018951F920A
:100E40000F920FB60F9211242F938F939F93EF93CE
:100E5000FF93E0916802F09169028081E0916E0257
:100E6000F0916F0282FD1BC09081809171028F5FB3
:100E70008F7320917202821741F0E0917102F0E0CD
:100E8000E85AFD4F958F80937102FF91EF919F91EA
:100E90008F912F910F900FBE0F901F90189580810A
:100EA000F4CF1F920F920FB60F9211242F933F93FE
:100EB0008F939F93AF93BF9380915402909155026B
:100EC000A0915602B091570230914B0223E0230FBC
:100ED0002D3758F50196A11DB11D20934B0280932B
:100EE000540290935502A0935602B09357028091FA
:100EF0004C0290914D02A0914E02B0914F0201968A
:100F0000A11DB11D80934C0290934D02A0934E02FF
:100F1000B0934F02BF91AF919F918F913F912F91CD
:100F20000F900FBE0F901F90189526E8230F029682
:100F3000A11DB11DD2CF1F920F920FB60F92112497
:100F40002F933F934F935F936F937F938F939F93D1
:100F5000AF93BF93EF93FF938091B900887F803662
:100F600009F44AC0F0F5883209F4A5C018F58031BB
:100F700009F499C0B8F4882309F4F5C0883009F45D
:100F800092C0FF91EF91BF91AF919F918F917F910F
:100F90006F915F914F913F912F910F900FBE0F90E6
:100FA0001F901895883109F486C0803251F78093DC
:100FB0001F0214C0803409F49BC040F48033B9F39D
:100FC0008833F9F680931F0285ECAEC0803509F4B2
:100FD00083C0883509F494C0883499F60E94C1060C
:100FE000D0CF883909F48AC038F5883729F050F411
:100FF000883611F0803729F683E080932102109221
:10100000FA0155C0883809F479C0803919F0803860
:1010100009F0B7CF8091FA01803208F06FC0E091FB
:10102000FA0181E08E0F8093FA018091BB00F0E01D
:10103000E652FE4F80833BC0803B39F0D0F4803ACB
:1010400009F477C0883A09F09CCF84E080932102AC
:101050001092D9011092D801F0E0E0E0099580915A
:10106000D80181110FC081E08093D8011092B8019E
:1010700009C0803C09F4A8CF883C09F4A5CF883B7F
:1010800009F07FCFE091D90181E08E0F8093D901E3
:10109000F0E0E854FE4F80818093BB009091D9012D
:1010A0008091D80129C08091FC018093BB0085EC20
:1010B0008093BC0066CF90911E0280911D0298170C
:1010C00058F5E0911E0281E08E0F80931E02F0E041
:1010D000E350FE4F8081E9CFE0911E0281E08E0F48
:1010E00080931E028091BB00F0E0E350FE4F8083AE
:1010F00090911E0280911D029817C8F285E8D8CF02
:10110000E0911E0281E08E0F80931E028091BB0051
:10111000F0E0E350FE4F80838091200281115ECF8A
:1011200081E08093FB0184EA8093BC00109221024D
:1011300028CF85EC8093BC00109221028091FA01A7
:10114000803230F4E091FA01F0E0E652FE4F108276
:101150006091FA0170E08AED91E0F0E0E0E009953D
:101160001092FA010ECF10921F0238CFCF93DF9367
:1011700010925B0210925A0288EE93E0A0E0B0E079
:1011800080935C0290935D02A0935E02B0935F0235
:101190002CE231E0309359022093580225EC30E0E4
:1011A000309365022093640224EC30E030936702B0
:1011B0002093660220EC30E03093690220936802AD
:1011C00021EC30E030936B0220936A0222EC30E095
:1011D00030936D0220936C0226EC30E030936F0266
:1011E00020936E021092710210927202109273029A
:1011F000109274021092F8021092F7028093F90292
:101200009093FA02A093FB02B093FC028EE391E06C
:101210009093F6028093F502109287031092860352
:1012200010927D0310927C0310929203109293030C
:10123000109294031092950380E290E090938303C0
:101240008093820382E090E09093890380938803E7
:1012500083E090E090938B0380938A03C4E0D0E016
:10126000D0938D03C0938C0385E090E090938F031F
:1012700080938E0361E082E00E94C30361E080916D
:101280008A030E94C30361E080918C030E94C30320
:1012900061E080918E030E94C3031092910310922B
:1012A0009003D0938503C09384031092730310922C
:1012B00072038AE591E0909371038093700380E25A
:1012C0008093740384E18093790384E080937A03AC
:1012D00010927B03109203031092070310920603EF
:1012E0001092080380E591E090930203809301033C
:1012F000EDE1F3E01082148213821582369683E0CA
:10130000E935F807B9F786E091E09093640380939C
:10131000630382E091E0909366038093650384E029
:1013200080936703809368038AE091E0909362035F
:10133000809361038AE090E090936A03809369034D
:1013400084EF91E090936C0380936B0310926F0392
:1013500010926E0310925D0310925E0310925F0371
:101360001092600310926D03DF91CF910895CF9397
:10137000DF93CDB7DEB7A7970FB6F894DEBF0FBEE9
:10138000CDBF789484B5826084BD84B5816084BD0E
:1013900085B5826085BD85B5816085BD80916E0013
:1013A000816080936E001092810080918100826044
:1013B0008093810080918100816080938100809181
:1013C00080008160809380008091B1008460809370
:1013D000B1008091B00081608093B00080917A006C
:1013E000846080937A0080917A00826080937A0092
:1013F00080917A00816080937A0080917A00806881
:1014000080937A001092C100E0916802F091690225
:1014100032E0F32EF082E0916402F09165021082D6
:10142000E0916602F09167028FEC80831092700267
:10143000E0916C02F0916D0286E08083E0916A0297
:10144000F0916B02808180618083E0916A02F0916B
:101450006B02808188608083E0916A02F0916B0268
:10146000808180688083E0916A02F0916B028081C4
:101470008F7D808380917503886080937503F092DF
:10148000780362E370E080E090E00E9428046091BD
:101490007B0380E793E00E942C0568EE73E080E018
:1014A00090E00E94280460E380E793E00E94160623
:1014B0000BE416E4C8010197F1F760E380E793E0DD
:1014C0000E941606C8010197F1F760E380E793E0F8
:1014D0000E94160683E592E00197F1F760E280E74B
:1014E00093E00E94160660917503606240E080E719
:1014F00093E00E942F0684E08093760340E06CE046
:1015000080E793E00E942F060E944606F092770340
:1015100040E066E080E793E00E942F0640E062E052
:1015200080E793E00E942F068BE39FE10197F1F79C
:1015300088E080937B0360E080E793E00E942C05C5
:1015400061E08DE00E94C30360E08DE00E948102B3
:1015500061E08AE00E94C30360E08AE00E948102A9
:101560004AE0442E512C612C712C60E081E00E94F5
:10157000510662E671E080E793E00E948A061BA2B2
:101580001AA21DA21CA21FA21EA270E060E0CE0142
:1015900082960E9499062AA13BA1811151C0211572
:1015A000310519F0C9010E94AA0F1BA21AA21FA29D
:1015B0001EA21DA21CA2809100019091010105971D
:1015C0000CF0F0C2EE24E3943324339456E0E51695
:1015D00009F46FC130926D038FB7F89440915402B3
:1015E0005091550260915602709157028FBF8091C1
:1015F0005D0390915E03A0915F03B0916003481B6F
:10160000590B6A0B7B0B8091690390916A03B0E0E0
:10161000A0E084179507A607B70708F047C110E0B8
:10162000809167031817A0F4E0916303F0916403BD
:10163000E10FF11D62E080810E94C3031F5FF0CFC4
:101640001FA21EA26BE871E0C9010E940211B3CF74
:10165000F12C80916803F81608F063C0CF2CD12CD0
:10166000E0916503F0916603EC0DFD1D61E0808162
:101670000E94C303E0916503F0916603EC0DFD1D2C
:1016800060E080810E94810281E090E0A0E0B0E013
:101690000F2C04C0880F991FAA1FBB1F0A94D2F7F2
:1016A0004C015C01A094B094212C80916703281612
:1016B00008F5022D10E0E0916303F0916403E00F60
:1016C000F11F80810E9455020C5F1F4F000F111FF8
:1016D000F801EF5FFC4F892B41F4808191818829CB
:1016E0009929918380832394E0CF808191818A21FD
:1016F0009B21F7CFE0916503F0916603EC0DFD1D92
:1017000061E080810E94810280916503909166036F
:10171000C80ED91E60E0F60180810E94C303F394D5
:1017200098CF01E013E0F801878D90A1892B31F467
:10173000148E8FEF9FEF968F858F11A2369693E0D0
:10174000ED33F90789F7F12C80916703F81608F05B
:1017500053C0D12CAF2CB12CAA0CBB1CF501E75FF8
:10176000FC4F5F0120916803D21608F043C0F501D9
:10177000608171810D2C02C0769567950A94E2F71D
:10178000F29E900111242D0D311DE1E0F3E080E087
:10179000458D568D2417350709F482C28F5F369622
:1017A0008A30B1F760FF24C0E1E0F3E090E080E030
:1017B000448D411118C0E0916103F0916203E20F82
:1017C000F31F408156E0589FF001599FF00D1124FE
:1017D000EF5FFC4F448F368F258F10A2178E61E08C
:1017E0000E94AF0005C0019636968A30910501F738
:1017F000D394B8CFF394A8CF80E0F80191A19111D0
:10180000892F0A5F1F4FF3E00D331F07B1F79FB712
:10181000F894409154025091550260915602709193
:1018200057029FBF40935D0350935E0360935F0335
:10183000709360038823D1F1809122038823B1F152
:101840008091200390912103019781F5F0901D0371
:10185000FF2009F4BBCEF9821A820EA11FA10F5FEF
:101860001F4FB801CE0182960E949906882369F025
:101870002AA13BA18EA19FA1BE016F5F7F4F820F66
:10188000931F0E9402111FA30EA361E08E2D0E94E0
:10189000510661E771E080E793E00E948A066F2DB0
:1018A00088E592E00E94BF01E39490CE10926D0310
:1018B0008DCE8EA19FA1892B49F063E771E08AA1AB
:1018C0009BA10E94F910892B09F46EC08091000140
:1018D00090910101019690930101809300010E9473
:1018E000460669E771E080E793E00E948A0669E7AF
:1018F00071E088E592E00E948A0669E871E088E577
:1019000092E00E948A0661E08DE00E94810264EF0D
:1019100071E080E090E00E94280460E08DE00E9489
:10192000810264EF71E080E090E00E94280461E0B1
:101930008DE00E94810264EF71E080E090E00E94FF
:10194000280460E08DE00E94810264EF71E080E095
:1019500090E00E94280461E08DE00E94810264EF23
:1019600071E080E090E00E94280460E08DE00E9439
:10197000810268EE73E080E090E00E9428040E94FB
:1019800046068AA19BA1009711F00E94AA0F80E051
:1019900090E0892B09F4E9CD0E948901882309F49C
:1019A000E4CD0E940000E1CD80E480937C00809132
:1019B0007A00806480937A0080917A0086FDFCCF63
:1019C00080917800A0917900BA2FA82F22EF31E002
:1019D0000E94F30E2FEF33E040E050E00E94520EE1
:1019E00069017A0182E0C80ED11CE11CF11C8091D2
:1019F000520290915302092E000CAA0BBB0B8C15BE
:101A00009D05AE05BF0501F1D0925302C09252026E
:101A10002091820330918303032E000C440B550B5D
:101A200060E077E883E993E00E94520ECA01B901B1
:101A3000A70196010E94520E20937E0330937F03EC
:101A4000409380035093810381E090E090937D0365
:101A500080937C030E9403040091920310919303EE
:101A600020919403309195036B017C01C01AD10A37
:101A7000E20AF30A00917E0310917F032091800314
:101A800030918103C016D106E206F30618F3609385
:101A900092037093930380939403909395038091A2
:101AA00086039091870320917C0330917D03213040
:101AB000310509F465C0892B09F459C0809186036A
:101AC0009091870301979093870380938603809179
:101AD000860390918703209184033091850364E00D
:101AE00070E02530310511F46AE070E00E94D90EF3
:101AF0000E94AF020E9446066CE871E080E793E026
:101B00000E948A0661E08AE00E94810264EF71E02F
:101B100080E090E00E94280460E08AE00E94810258
:101B200064EF71E080E090E00E94280461E08AE0C8
:101B30000E94810264EF71E080E090E00E9428043E
:101B400060E08AE00E94810264EF71E080E090E052
:101B50000E94280461E08AE00E94810264EF71E043
:101B600080E090E00E94280460E08AE000CF80914D
:101B700082039091830390938703809386039ECF83
:101B8000019690938703809386032091820330917E
:101B900083038217930709F09ACF1092870310925C
:101BA000860395CF809150029091510201969093B7
:101BB000510280935002109201011092000125E021
:101BC000289F7001299FF00C112460E084E00E949E
:101BD00051066FE971E080E793E00E948A0661E0B8
:101BE00080E00E94510647010F2C000CAA08BB0898
:101BF000B7FE40C041E06DE280E793E00E942F060F
:101C000022273327A901281939094A095B0919A292
:101C10008E010F5D1F4FCA01B901A30192010E94FD
:101C2000A80E605DF80162938F0121153105410511
:101C3000510589F70115110529F0B80180E793E0F6
:101C40000E948A0661E083E00E9451066CEA71E01E
:101C500080E793E00E948A0688EE93E0E89EB00158
:101C6000E99E700DF89E700D1124072E000C880B54
:101C7000990B83CEA501940119A28E010F5D1F4F10
:101C8000CA01B901A30192010E94A80E605DF8018A
:101C900062938F01211531054105510589F7CACF9E
:101CA00061709ECD052E97FB1EF400940E94690E74
:101CB00057FD07D00E94A80E07FC03D04EF40C94E9
:101CC000690E50954095309521953F4F4F4F5F4F8E
:101CD000089590958095709561957F4F8F4F9F4F98
:101CE00008952F923F924F925F926F927F928F92C0
:101CF0009F92AF92BF92CF92DF92EF92FF920F939B
:101D00001F93CF93DF93CDB7DEB7CA1BDB0B0FB6A4
:101D1000F894DEBF0FBECDBF09942A883988488861
:101D20005F846E847D848C849B84AA84B984C884F7
:101D3000DF80EE80FD800C811B81AA81B981CE0FEE
:101D4000D11D0FB6F894DEBF0FBECDBFED010895D3
:101D5000A1E21A2EAA1BBB1BFD010DC0AA1FBB1FAF
:101D6000EE1FFF1FA217B307E407F50720F0A21B21
:101D7000B30BE40BF50B661F771F881F991F1A948E
:101D800069F760957095809590959B01AC01BD01B8
:101D9000CF010895A29FB001B39FC001A39F700D12
:101DA000811D1124911DB29F700D811D1124911D63
:101DB000089597FB072E16F4009407D077FD09D0FD
:101DC0000E94FA0E07FC05D03EF4909581959F4F36
:101DD0000895709561957F4F0895EE0FFF1F059050
:101DE000F491E02D09940E94CA0EB7FF0895821B5A
:101DF000930B0895AA1BBB1B51E107C0AA1FBB1F71
:101E0000A617B70710F0A61BB70B881F991F5A9586
:101E1000A9F780959095BC01CD0108950F931F936C
:101E2000CF93DF938230910510F482E090E0E0914F
:101E30009803F091990330E020E0B0E0A0E0309703
:101E400099F42115310509F44AC0281B390B2430B7
:101E50003105D8F58A819B816115710589F1FB01F6
:101E600093838283FE0111C04081518102811381DD
:101E700048175907E0F04817590799F4109761F08F
:101E800012960C93129713961C933296CF01DF9102
:101E9000CF911F910F910895009398031093990388
:101EA000F4CF2115310551F04217530738F0A9013D
:101EB000DB019A01BD01DF01F801C1CFEF01F9CFCC
:101EC0009093990380939803CDCFFE01E20FF31F07
:101ED000819391932250310939832883D7CF209160
:101EE000960330919703232B41F420911C013091EC
:101EF0001D01309397032093960320911A0130918E
:101F00001B012115310541F42DB73EB740911E014B
:101F100050911F01241B350BE0919603F09197031C
:101F2000E217F307A0F42E1B3F0B2817390778F0B0
:101F3000AC014E5F5F4F2417350748F04E0F5F1F0F
:101F40005093970340939603819391939FCFF0E032
:101F5000E0E09CCFCF93DF930097E9F0FC0132974C
:101F600013821282A0919803B0919903ED0130E0A1
:101F700020E01097A1F420813181820F931F2091DE
:101F80009603309197032817390709F061C0F09341
:101F90009703E0939603DF91CF910895EA01CE175E
:101FA000DF07E8F54A815B819E0141155105B1F7D4
:101FB000E901FB83EA8349915991C40FD51FEC17BE
:101FC000FD0761F4808191810296840F951FE901DC
:101FD00099838883828193819B838A83F0E0E0E008
:101FE00012968D919C9113970097B9F52D913C9184
:101FF0001197CD010296820F931F20919603309185
:1020000097032817390739F6309751F5109299033D
:1020100010929803B0939703A0939603BCCFD383F9
:10202000C28340815181840F951FC817D90761F47D
:102030004E5F5F4F88819981480F591F51834083BC
:102040008A819B81938382832115310509F0B0CF6A
:10205000F0939903E09398039ECFFD01DC01C0CF7C
:1020600013821282D7CFB0E0A0E0E9E3F0E10C9454
:10207000730E8C01009751F4CB010E940E0F8C015E
:10208000C801CDB7DEB7E0E10C948F0EFC01E60F7E
:10209000F71F9C0122503109E217F30708F49DC095
:1020A000D901CD91DC911197C617D70798F0C530AB
:1020B000D10530F3CE0104978617970708F3C61BA6
:1020C000D70B2297C193D1936D937C93CF010E943C
:1020D000AA0FD6CF5B01AC1ABD0A4C018C0E9D1E17
:1020E000A0919803B0919903512C412CF12CE12C33
:1020F000109731F580919603909197038815990573
:1021000009F05CC04616570608F058C080911A01C5
:1021100090911B01009741F48DB79EB740911E012D
:1021200050911F01841B950BE817F90708F055C063
:10213000F0939703E0939603F90171836083A0CF36
:102140008D919C91119712966C90129713967C909A
:102150001397A815B90559F56C0142E0C40ED11CBE
:10216000CA14DB0420F1AC014A195B09DA011296AA
:10217000159780F06282738251834083D9016D93F9
:102180007C93E114F10471F0D7011396FC93EE9364
:10219000129776CF22968C0F9D1FF9019183808331
:1021A000F301EFCFF0939903E093980369CF4816BA
:1021B000590608F42C017D01D3019ACFCB010E946E
:1021C0000E0F7C01009749F0AE01B8010E94F0109B
:1021D000C8010E94AA0F870153CF10E000E050CF42
:1021E000FB01DC0102C001900D9241505040D8F734
:1021F0000895FB01DC018D91019080190110D9F344
:10220000990B0895FB01DC0101900D920020E1F78C
:062210000895F894FFCFD1
:1022160001000F1011120607080931323341343517
:102226003642373839432A30234400009A03800067
:10223600000040001400540000000000BF011F0110
:102246004C010C027D015B016F0100000000FD04E2
:10225600D0041306C204C904C604C3040000000067
:10226600FF03BF037E020000000084061F01130661
:102276005B04454E5445522050415353574F5244E8
:10228600002A00303130313000414343455353205A
:1022960044454E4945442121000D0A00414343452A
:1022A6005353205045524D49545445442121005220
:1022B6004554525920414654455220005345434FF8
:0622C6004E4453212100EB
:00000001FF
